{"abi":[{"type":"constructor","inputs":[],"stateMutability":"nonpayable"},{"type":"function","name":"UPGRADE_INTERFACE_VERSION","inputs":[],"outputs":[{"name":"","type":"string","internalType":"string"}],"stateMutability":"view"},{"type":"function","name":"auctions","inputs":[{"name":"","type":"uint256","internalType":"uint256"}],"outputs":[{"name":"seller","type":"address","internalType":"address"},{"name":"nftAddr","type":"address","internalType":"address"},{"name":"tokenId","type":"uint256","internalType":"uint256"},{"name":"minPriceInUsd","type":"uint256","internalType":"uint256"},{"name":"highestBidder","type":"address","internalType":"address"},{"name":"highestBidAmount","type":"uint256","internalType":"uint256"},{"name":"endTime","type":"uint256","internalType":"uint256"},{"name":"isActive","type":"bool","internalType":"bool"}],"stateMutability":"view"},{"type":"function","name":"bid","inputs":[{"name":"_auctionId","type":"uint256","internalType":"uint256"}],"outputs":[],"stateMutability":"payable"},{"type":"function","name":"createAuction","inputs":[{"name":"_nftAddr","type":"address","internalType":"address"},{"name":"_tokenId","type":"uint256","internalType":"uint256"},{"name":"_minPriceUsd","type":"uint256","internalType":"uint256"},{"name":"_duration","type":"uint256","internalType":"uint256"}],"outputs":[],"stateMutability":"nonpayable"},{"type":"function","name":"endAuction","inputs":[{"name":"_auctionId","type":"uint256","internalType":"uint256"}],"outputs":[],"stateMutability":"nonpayable"},{"type":"function","name":"getLatestPrice","inputs":[],"outputs":[{"name":"","type":"int256","internalType":"int256"}],"stateMutability":"view"},{"type":"function","name":"initialize","inputs":[{"name":"_priceFeed","type":"address","internalType":"address"}],"outputs":[],"stateMutability":"nonpayable"},{"type":"function","name":"owner","inputs":[],"outputs":[{"name":"","type":"address","internalType":"address"}],"stateMutability":"view"},{"type":"function","name":"proxiableUUID","inputs":[],"outputs":[{"name":"","type":"bytes32","internalType":"bytes32"}],"stateMutability":"view"},{"type":"function","name":"renounceOwnership","inputs":[],"outputs":[],"stateMutability":"nonpayable"},{"type":"function","name":"totalAuctions","inputs":[],"outputs":[{"name":"","type":"uint256","internalType":"uint256"}],"stateMutability":"view"},{"type":"function","name":"transferOwnership","inputs":[{"name":"newOwner","type":"address","internalType":"address"}],"outputs":[],"stateMutability":"nonpayable"},{"type":"function","name":"upgradeToAndCall","inputs":[{"name":"newImplementation","type":"address","internalType":"address"},{"name":"data","type":"bytes","internalType":"bytes"}],"outputs":[],"stateMutability":"payable"},{"type":"event","name":"Initialized","inputs":[{"name":"version","type":"uint64","indexed":false,"internalType":"uint64"}],"anonymous":false},{"type":"event","name":"OwnershipTransferred","inputs":[{"name":"previousOwner","type":"address","indexed":true,"internalType":"address"},{"name":"newOwner","type":"address","indexed":true,"internalType":"address"}],"anonymous":false},{"type":"event","name":"Upgraded","inputs":[{"name":"implementation","type":"address","indexed":true,"internalType":"address"}],"anonymous":false},{"type":"error","name":"AddressEmptyCode","inputs":[{"name":"target","type":"address","internalType":"address"}]},{"type":"error","name":"ERC1967InvalidImplementation","inputs":[{"name":"implementation","type":"address","internalType":"address"}]},{"type":"error","name":"ERC1967NonPayable","inputs":[]},{"type":"error","name":"FailedCall","inputs":[]},{"type":"error","name":"InvalidInitialization","inputs":[]},{"type":"error","name":"NotInitializing","inputs":[]},{"type":"error","name":"OwnableInvalidOwner","inputs":[{"name":"owner","type":"address","internalType":"address"}]},{"type":"error","name":"OwnableUnauthorizedAccount","inputs":[{"name":"account","type":"address","internalType":"address"}]},{"type":"error","name":"ReentrancyGuardReentrantCall","inputs":[]},{"type":"error","name":"UUPSUnauthorizedCallContext","inputs":[]},{"type":"error","name":"UUPSUnsupportedProxiableUUID","inputs":[{"name":"slot","type":"bytes32","internalType":"bytes32"}]}],"bytecode":{"object":"0x60a06040523073ffffffffffffffffffffffffffffffffffffffff1660809073ffffffffffffffffffffffffffffffffffffffff16815250348015610042575f5ffd5b5061005161005660201b60201c565b6101d1565b5f61006561015460201b60201c565b9050805f0160089054906101000a900460ff16156100af576040517ff92ee8a900000000000000000000000000000000000000000000000000000000815260040160405180910390fd5b67ffffffffffffffff8016815f015f9054906101000a900467ffffffffffffffff1667ffffffffffffffff16146101515767ffffffffffffffff815f015f6101000a81548167ffffffffffffffff021916908367ffffffffffffffff1602179055507fc7f505b2f371ae2175ee4913f4499e1f2633a7b5936321eed1cdaeb6115181d267ffffffffffffffff60405161014891906101b8565b60405180910390a15b50565b5f5f61016461016d60201b60201c565b90508091505090565b5f7ff0c57e16840df040f15088dc2f81fe391c3923bec73e23a9662efc9c229c6a005f1b905090565b5f67ffffffffffffffff82169050919050565b6101b281610196565b82525050565b5f6020820190506101cb5f8301846101a9565b92915050565b6080516125246101f75f395f8181611073015281816110c8015261128201526125245ff3fe6080604052600436106100c1575f3560e01c8063715018a61161007e578063ad3cb1cc11610058578063ad3cb1cc14610226578063b9a2de3a14610250578063c4d66de814610278578063f2fde38b146102a0576100c1565b8063715018a6146101bc5780638da5cb5b146101d25780638e15f473146101fc576100c1565b806316002f4a146100c5578063454a2ab3146100ef5780634f1ef2861461010b57806352d1902d14610127578063571a26a01461015157806361beb1d714610194575b5f5ffd5b3480156100d0575f5ffd5b506100d96102c8565b6040516100e69190611936565b60405180910390f35b6101096004803603810190610104919061198a565b6102ce565b005b61012560048036038101906101209190611b4b565b6105f7565b005b348015610132575f5ffd5b5061013b610616565b6040516101489190611bbd565b60405180910390f35b34801561015c575f5ffd5b506101776004803603810190610172919061198a565b610647565b60405161018b989796959493929190611bff565b60405180910390f35b34801561019f575f5ffd5b506101ba60048036038101906101b59190611c7b565b6106f3565b005b3480156101c7575f5ffd5b506101d0610930565b005b3480156101dd575f5ffd5b506101e6610943565b6040516101f39190611cdf565b60405180910390f35b348015610207575f5ffd5b50610210610978565b60405161021d9190611d10565b60405180910390f35b348015610231575f5ffd5b5061023a610a15565b6040516102479190611d89565b60405180910390f35b34801561025b575f5ffd5b506102766004803603810190610271919061198a565b610a4e565b005b348015610283575f5ffd5b5061029e60048036038101906102999190611da9565b610db9565b005b3480156102ab575f5ffd5b506102c660048036038101906102c19190611da9565b610f82565b005b60015481565b6102d6611006565b5f5f5f8381526020019081526020015f209050806007015f9054906101000a900460ff16610339576040517f08c379a000000000000000000000000000000000000000000000000000000000815260040161033090611e1e565b60405180910390fd5b8060060154421061037f576040517f08c379a000000000000000000000000000000000000000000000000000000000815260040161037690611e86565b60405180910390fd5b806005015434116103c5576040517f08c379a00000000000000000000000000000000000000000000000000000000081526004016103bc90611eee565b60405180910390fd5b5f6103ce610978565b90505f8113610412576040517f08c379a000000000000000000000000000000000000000000000000000000000815260040161040990611f56565b60405180910390fd5b5f6305f5e10034836104249190611fa1565b61042e919061200f565b90508260030154811015610477576040517f08c379a000000000000000000000000000000000000000000000000000000000815260040161046e90612089565b60405180910390fd5b5f73ffffffffffffffffffffffffffffffffffffffff16836004015f9054906101000a900473ffffffffffffffffffffffffffffffffffffffff1673ffffffffffffffffffffffffffffffffffffffff161461059e575f836004015f9054906101000a900473ffffffffffffffffffffffffffffffffffffffff1673ffffffffffffffffffffffffffffffffffffffff168460050154604051610519906120d4565b5f6040518083038185875af1925050503d805f8114610553576040519150601f19603f3d011682016040523d82523d5f602084013e610558565b606091505b505090508061059c576040517f08c379a000000000000000000000000000000000000000000000000000000000815260040161059390612132565b60405180910390fd5b505b33836004015f6101000a81548173ffffffffffffffffffffffffffffffffffffffff021916908373ffffffffffffffffffffffffffffffffffffffff1602179055503483600501819055505050506105f461105a565b50565b6105ff611071565b61060882611157565b6106128282611162565b5050565b5f61061f611280565b7f360894a13ba1a3210667c828492db98dca3e2076cc3735a920a3ca505d382bbc5f1b905090565b5f602052805f5260405f205f91509050805f015f9054906101000a900473ffffffffffffffffffffffffffffffffffffffff1690806001015f9054906101000a900473ffffffffffffffffffffffffffffffffffffffff1690806002015490806003015490806004015f9054906101000a900473ffffffffffffffffffffffffffffffffffffffff1690806005015490806006015490806007015f9054906101000a900460ff16905088565b8373ffffffffffffffffffffffffffffffffffffffff166323b872dd3330866040518463ffffffff1660e01b815260040161073093929190612150565b5f604051808303815f87803b158015610747575f5ffd5b505af1158015610759573d5f5f3e3d5ffd5b5050505060015f81548092919061076f90612185565b91905055506040518061010001604052803373ffffffffffffffffffffffffffffffffffffffff1681526020018573ffffffffffffffffffffffffffffffffffffffff1681526020018481526020018381526020015f73ffffffffffffffffffffffffffffffffffffffff1681526020015f815260200182426107f291906121cc565b8152602001600115158152505f5f60015481526020019081526020015f205f820151815f015f6101000a81548173ffffffffffffffffffffffffffffffffffffffff021916908373ffffffffffffffffffffffffffffffffffffffff1602179055506020820151816001015f6101000a81548173ffffffffffffffffffffffffffffffffffffffff021916908373ffffffffffffffffffffffffffffffffffffffff16021790555060408201518160020155606082015181600301556080820151816004015f6101000a81548173ffffffffffffffffffffffffffffffffffffffff021916908373ffffffffffffffffffffffffffffffffffffffff16021790555060a0820151816005015560c0820151816006015560e0820151816007015f6101000a81548160ff02191690831515021790555090505050505050565b610938611307565b6109415f61138e565b565b5f5f61094d61145f565b9050805f015f9054906101000a900473ffffffffffffffffffffffffffffffffffffffff1691505090565b5f5f60025f9054906101000a900473ffffffffffffffffffffffffffffffffffffffff1673ffffffffffffffffffffffffffffffffffffffff1663feaf968c6040518163ffffffff1660e01b815260040160a060405180830381865afa1580156109e4573d5f5f3e3d5ffd5b505050506040513d601f19601f82011682018060405250810190610a08919061227c565b5050509150508091505090565b6040518060400160405280600581526020017f352e302e3000000000000000000000000000000000000000000000000000000081525081565b610a56611006565b5f5f5f8381526020019081526020015f209050806007015f9054906101000a900460ff16610ab9576040517f08c379a0000000000000000000000000000000000000000000000000000000008152600401610ab09061233d565b60405180910390fd5b8060060154421015610b00576040517f08c379a0000000000000000000000000000000000000000000000000000000008152600401610af7906123a5565b60405180910390fd5b5f816007015f6101000a81548160ff0219169083151502179055505f73ffffffffffffffffffffffffffffffffffffffff16816004015f9054906101000a900473ffffffffffffffffffffffffffffffffffffffff1673ffffffffffffffffffffffffffffffffffffffff1614610cf957806001015f9054906101000a900473ffffffffffffffffffffffffffffffffffffffff1673ffffffffffffffffffffffffffffffffffffffff166323b872dd30836004015f9054906101000a900473ffffffffffffffffffffffffffffffffffffffff1684600201546040518463ffffffff1660e01b8152600401610bf893929190612150565b5f604051808303815f87803b158015610c0f575f5ffd5b505af1158015610c21573d5f5f3e3d5ffd5b505050505f815f015f9054906101000a900473ffffffffffffffffffffffffffffffffffffffff1673ffffffffffffffffffffffffffffffffffffffff168260050154604051610c70906120d4565b5f6040518083038185875af1925050503d805f8114610caa576040519150601f19603f3d011682016040523d82523d5f602084013e610caf565b606091505b5050905080610cf3576040517f08c379a0000000000000000000000000000000000000000000000000000000008152600401610cea9061240d565b60405180910390fd5b50610dad565b806001015f9054906101000a900473ffffffffffffffffffffffffffffffffffffffff1673ffffffffffffffffffffffffffffffffffffffff166323b872dd30835f015f9054906101000a900473ffffffffffffffffffffffffffffffffffffffff1684600201546040518463ffffffff1660e01b8152600401610d7f93929190612150565b5f604051808303815f87803b158015610d96575f5ffd5b505af1158015610da8573d5f5f3e3d5ffd5b505050505b50610db661105a565b50565b5f610dc2611486565b90505f815f0160089054906101000a900460ff161590505f825f015f9054906101000a900467ffffffffffffffff1690505f5f8267ffffffffffffffff16148015610e0a5750825b90505f60018367ffffffffffffffff16148015610e3d57505f3073ffffffffffffffffffffffffffffffffffffffff163b145b905081158015610e4b575080155b15610e82576040517ff92ee8a900000000000000000000000000000000000000000000000000000000815260040160405180910390fd5b6001855f015f6101000a81548167ffffffffffffffff021916908367ffffffffffffffff1602179055508315610ecf576001855f0160086101000a81548160ff0219169083151502179055505b610ed833611499565b610ee06114ad565b8560025f6101000a81548173ffffffffffffffffffffffffffffffffffffffff021916908373ffffffffffffffffffffffffffffffffffffffff1602179055508315610f7a575f855f0160086101000a81548160ff0219169083151502179055507fc7f505b2f371ae2175ee4913f4499e1f2633a7b5936321eed1cdaeb6115181d26001604051610f719190612480565b60405180910390a15b505050505050565b610f8a611307565b5f73ffffffffffffffffffffffffffffffffffffffff168173ffffffffffffffffffffffffffffffffffffffff1603610ffa575f6040517f1e4fbdf7000000000000000000000000000000000000000000000000000000008152600401610ff19190611cdf565b60405180910390fd5b6110038161138e565b50565b5f61100f6114bf565b90506002815f01540361104e576040517f3ee5aeb500000000000000000000000000000000000000000000000000000000815260040160405180910390fd5b6002815f018190555050565b5f6110636114bf565b90506001815f018190555050565b7f000000000000000000000000000000000000000000000000000000000000000073ffffffffffffffffffffffffffffffffffffffff163073ffffffffffffffffffffffffffffffffffffffff16148061111e57507f000000000000000000000000000000000000000000000000000000000000000073ffffffffffffffffffffffffffffffffffffffff166111056114e6565b73ffffffffffffffffffffffffffffffffffffffff1614155b15611155576040517fe07c8dba00000000000000000000000000000000000000000000000000000000815260040160405180910390fd5b565b61115f611307565b50565b8173ffffffffffffffffffffffffffffffffffffffff166352d1902d6040518163ffffffff1660e01b8152600401602060405180830381865afa9250505080156111ca57506040513d601f19601f820116820180604052508101906111c791906124c3565b60015b61120b57816040517f4c9c8ce30000000000000000000000000000000000000000000000000000000081526004016112029190611cdf565b60405180910390fd5b7f360894a13ba1a3210667c828492db98dca3e2076cc3735a920a3ca505d382bbc5f1b811461127157806040517faa1d49a40000000000000000000000000000000000000000000000000000000081526004016112689190611bbd565b60405180910390fd5b61127b8383611539565b505050565b7f000000000000000000000000000000000000000000000000000000000000000073ffffffffffffffffffffffffffffffffffffffff163073ffffffffffffffffffffffffffffffffffffffff1614611305576040517fe07c8dba00000000000000000000000000000000000000000000000000000000815260040160405180910390fd5b565b61130f6115ab565b73ffffffffffffffffffffffffffffffffffffffff1661132d610943565b73ffffffffffffffffffffffffffffffffffffffff161461138c576113506115ab565b6040517f118cdaa70000000000000000000000000000000000000000000000000000000081526004016113839190611cdf565b60405180910390fd5b565b5f61139761145f565b90505f815f015f9054906101000a900473ffffffffffffffffffffffffffffffffffffffff16905082825f015f6101000a81548173ffffffffffffffffffffffffffffffffffffffff021916908373ffffffffffffffffffffffffffffffffffffffff1602179055508273ffffffffffffffffffffffffffffffffffffffff168173ffffffffffffffffffffffffffffffffffffffff167f8be0079c531659141344cd1fd0a4f28419497f9722a3daafe3b4186f6b6457e060405160405180910390a3505050565b5f7f9016d09d72d40fdae2fd8ceac6b6234c7706214fd39c1cd1e609a0528c199300905090565b5f5f6114906115b2565b90508091505090565b6114a16115db565b6114aa8161161b565b50565b6114b56115db565b6114bd61169f565b565b5f7f9b779b17422d0df92223018b32b4d1fa46e071723d6817e2486d003becc55f00905090565b5f6115127f360894a13ba1a3210667c828492db98dca3e2076cc3735a920a3ca505d382bbc5f1b6116be565b5f015f9054906101000a900473ffffffffffffffffffffffffffffffffffffffff16905090565b611542826116c7565b8173ffffffffffffffffffffffffffffffffffffffff167fbc7cd75a20ee27fd9adebab32041f755214dbc6bffa90cc0225b39da2e5c2d3b60405160405180910390a25f8151111561159e576115988282611790565b506115a7565b6115a6611881565b5b5050565b5f33905090565b5f7ff0c57e16840df040f15088dc2f81fe391c3923bec73e23a9662efc9c229c6a005f1b905090565b6115e36118bd565b611619576040517fd7e6bcf800000000000000000000000000000000000000000000000000000000815260040160405180910390fd5b565b6116236115db565b5f73ffffffffffffffffffffffffffffffffffffffff168173ffffffffffffffffffffffffffffffffffffffff1603611693575f6040517f1e4fbdf700000000000000000000000000000000000000000000000000000000815260040161168a9190611cdf565b60405180910390fd5b61169c8161138e565b50565b6116a76115db565b5f6116b06114bf565b90506001815f018190555050565b5f819050919050565b5f8173ffffffffffffffffffffffffffffffffffffffff163b0361172257806040517f4c9c8ce30000000000000000000000000000000000000000000000000000000081526004016117199190611cdf565b60405180910390fd5b8061174e7f360894a13ba1a3210667c828492db98dca3e2076cc3735a920a3ca505d382bbc5f1b6116be565b5f015f6101000a81548173ffffffffffffffffffffffffffffffffffffffff021916908373ffffffffffffffffffffffffffffffffffffffff16021790555050565b60605f61179d84846118db565b90508080156117d357505f6117b06118ef565b11806117d257505f8473ffffffffffffffffffffffffffffffffffffffff163b115b5b156117e8576117e06118f6565b91505061187b565b801561182b57836040517f9996b3150000000000000000000000000000000000000000000000000000000081526004016118229190611cdf565b60405180910390fd5b5f6118346118ef565b111561184757611842611913565b611879565b6040517fd6bda27500000000000000000000000000000000000000000000000000000000815260040160405180910390fd5b505b92915050565b5f3411156118bb576040517fb398979f00000000000000000000000000000000000000000000000000000000815260040160405180910390fd5b565b5f6118c6611486565b5f0160089054906101000a900460ff16905090565b5f5f5f835160208501865af4905092915050565b5f3d905090565b606060405190503d81523d5f602083013e3d602001810160405290565b6040513d5f823e3d81fd5b5f819050919050565b6119308161191e565b82525050565b5f6020820190506119495f830184611927565b92915050565b5f604051905090565b5f5ffd5b5f5ffd5b6119698161191e565b8114611973575f5ffd5b50565b5f8135905061198481611960565b92915050565b5f6020828403121561199f5761199e611958565b5b5f6119ac84828501611976565b91505092915050565b5f73ffffffffffffffffffffffffffffffffffffffff82169050919050565b5f6119de826119b5565b9050919050565b6119ee816119d4565b81146119f8575f5ffd5b50565b5f81359050611a09816119e5565b92915050565b5f5ffd5b5f5ffd5b5f601f19601f8301169050919050565b7f4e487b71000000000000000000000000000000000000000000000000000000005f52604160045260245ffd5b611a5d82611a17565b810181811067ffffffffffffffff82111715611a7c57611a7b611a27565b5b80604052505050565b5f611a8e61194f565b9050611a9a8282611a54565b919050565b5f67ffffffffffffffff821115611ab957611ab8611a27565b5b611ac282611a17565b9050602081019050919050565b828183375f83830152505050565b5f611aef611aea84611a9f565b611a85565b905082815260208101848484011115611b0b57611b0a611a13565b5b611b16848285611acf565b509392505050565b5f82601f830112611b3257611b31611a0f565b5b8135611b42848260208601611add565b91505092915050565b5f5f60408385031215611b6157611b60611958565b5b5f611b6e858286016119fb565b925050602083013567ffffffffffffffff811115611b8f57611b8e61195c565b5b611b9b85828601611b1e565b9150509250929050565b5f819050919050565b611bb781611ba5565b82525050565b5f602082019050611bd05f830184611bae565b92915050565b611bdf816119d4565b82525050565b5f8115159050919050565b611bf981611be5565b82525050565b5f61010082019050611c135f83018b611bd6565b611c20602083018a611bd6565b611c2d6040830189611927565b611c3a6060830188611927565b611c476080830187611bd6565b611c5460a0830186611927565b611c6160c0830185611927565b611c6e60e0830184611bf0565b9998505050505050505050565b5f5f5f5f60808587031215611c9357611c92611958565b5b5f611ca0878288016119fb565b9450506020611cb187828801611976565b9350506040611cc287828801611976565b9250506060611cd387828801611976565b91505092959194509250565b5f602082019050611cf25f830184611bd6565b92915050565b5f819050919050565b611d0a81611cf8565b82525050565b5f602082019050611d235f830184611d01565b92915050565b5f81519050919050565b5f82825260208201905092915050565b8281835e5f83830152505050565b5f611d5b82611d29565b611d658185611d33565b9350611d75818560208601611d43565b611d7e81611a17565b840191505092915050565b5f6020820190508181035f830152611da18184611d51565b905092915050565b5f60208284031215611dbe57611dbd611958565b5b5f611dcb848285016119fb565b91505092915050565b7f41756374696f6e206973206e6f742061637469766500000000000000000000005f82015250565b5f611e08601583611d33565b9150611e1382611dd4565b602082019050919050565b5f6020820190508181035f830152611e3581611dfc565b9050919050565b7f41756374696f6e206578706972656400000000000000000000000000000000005f82015250565b5f611e70600f83611d33565b9150611e7b82611e3c565b602082019050919050565b5f6020820190508181035f830152611e9d81611e64565b9050919050565b7f426964206d6f7265207468616e2063757272656e7420686967686573740000005f82015250565b5f611ed8601d83611d33565b9150611ee382611ea4565b602082019050919050565b5f6020820190508181035f830152611f0581611ecc565b9050919050565b7f496e76616c6964206f7261636c652070726963650000000000000000000000005f82015250565b5f611f40601483611d33565b9150611f4b82611f0c565b602082019050919050565b5f6020820190508181035f830152611f6d81611f34565b9050919050565b7f4e487b71000000000000000000000000000000000000000000000000000000005f52601160045260245ffd5b5f611fab8261191e565b9150611fb68361191e565b9250828202611fc48161191e565b91508282048414831517611fdb57611fda611f74565b5b5092915050565b7f4e487b71000000000000000000000000000000000000000000000000000000005f52601260045260245ffd5b5f6120198261191e565b91506120248361191e565b92508261203457612033611fe2565b5b828204905092915050565b7f4269642076616c75652062656c6f772055534420666c6f6f72000000000000005f82015250565b5f612073601983611d33565b915061207e8261203f565b602082019050919050565b5f6020820190508181035f8301526120a081612067565b9050919050565b5f81905092915050565b50565b5f6120bf5f836120a7565b91506120ca826120b1565b5f82019050919050565b5f6120de826120b4565b9150819050919050565b7f526566756e64206661696c6564000000000000000000000000000000000000005f82015250565b5f61211c600d83611d33565b9150612127826120e8565b602082019050919050565b5f6020820190508181035f83015261214981612110565b9050919050565b5f6060820190506121635f830186611bd6565b6121706020830185611bd6565b61217d6040830184611927565b949350505050565b5f61218f8261191e565b91507fffffffffffffffffffffffffffffffffffffffffffffffffffffffffffffffff82036121c1576121c0611f74565b5b600182019050919050565b5f6121d68261191e565b91506121e18361191e565b92508282019050808211156121f9576121f8611f74565b5b92915050565b5f69ffffffffffffffffffff82169050919050565b61221d816121ff565b8114612227575f5ffd5b50565b5f8151905061223881612214565b92915050565b61224781611cf8565b8114612251575f5ffd5b50565b5f815190506122628161223e565b92915050565b5f8151905061227681611960565b92915050565b5f5f5f5f5f60a0868803121561229557612294611958565b5b5f6122a28882890161222a565b95505060206122b388828901612254565b94505060406122c488828901612268565b93505060606122d588828901612268565b92505060806122e68882890161222a565b9150509295509295909350565b7f416c726561647920636c6f7365640000000000000000000000000000000000005f82015250565b5f612327600e83611d33565b9150612332826122f3565b602082019050919050565b5f6020820190508181035f8301526123548161231b565b9050919050565b7f4e6f742066696e697368656400000000000000000000000000000000000000005f82015250565b5f61238f600c83611d33565b915061239a8261235b565b602082019050919050565b5f6020820190508181035f8301526123bc81612383565b9050919050565b7f5061796d656e7420746f2073656c6c6572206661696c656400000000000000005f82015250565b5f6123f7601883611d33565b9150612402826123c3565b602082019050919050565b5f6020820190508181035f830152612424816123eb565b9050919050565b5f819050919050565b5f67ffffffffffffffff82169050919050565b5f819050919050565b5f61246a6124656124608461242b565b612447565b612434565b9050919050565b61247a81612450565b82525050565b5f6020820190506124935f830184612471565b92915050565b6124a281611ba5565b81146124ac575f5ffd5b50565b5f815190506124bd81612499565b92915050565b5f602082840312156124d8576124d7611958565b5b5f6124e5848285016124af565b9150509291505056fea2646970667358221220d695749b4150643c23c43c0172fab31509b2393d016750186eb16c2f7313b19764736f6c63430008210033","linkReferences":{}},"methodIdentifiers":{"UPGRADE_INTERFACE_VERSION()":"ad3cb1cc","auctions(uint256)":"571a26a0","bid(uint256)":"454a2ab3","createAuction(address,uint256,uint256,uint256)":"61beb1d7","endAuction(uint256)":"b9a2de3a","getLatestPrice()":"8e15f473","initialize(address)":"c4d66de8","owner()":"8da5cb5b","proxiableUUID()":"52d1902d","renounceOwnership()":"715018a6","totalAuctions()":"16002f4a","transferOwnership(address)":"f2fde38b","upgradeToAndCall(address,bytes)":"4f1ef286"},"id":56}