{"abi":[{"type":"constructor","inputs":[{"name":"initialPrice","type":"int256","internalType":"int256"}],"stateMutability":"nonpayable"},{"type":"function","name":"latestRoundData","inputs":[],"outputs":[{"name":"","type":"uint80","internalType":"uint80"},{"name":"","type":"int256","internalType":"int256"},{"name":"","type":"uint256","internalType":"uint256"},{"name":"","type":"uint256","internalType":"uint256"},{"name":"","type":"uint80","internalType":"uint80"}],"stateMutability":"view"},{"type":"function","name":"updatePrice","inputs":[{"name":"newPrice","type":"int256","internalType":"int256"}],"outputs":[],"stateMutability":"nonpayable"}],"bytecode":{"object":"0x6080604052348015600e575f5ffd5b5060405161026d38038061026d8339818101604052810190602e9190606b565b805f81905550506091565b5f5ffd5b5f819050919050565b604d81603d565b81146056575f5ffd5b50565b5f815190506065816046565b92915050565b5f60208284031215607d57607c6039565b5b5f6088848285016059565b91505092915050565b6101cf8061009e5f395ff3fe608060405234801561000f575f5ffd5b5060043610610034575f3560e01c8063d4c19bda14610038578063feaf968c14610054575b5f5ffd5b610052600480360381019061004d91906100d2565b610076565b005b61005c61007f565b60405161006d959493929190610148565b60405180910390f35b805f8190555050565b5f5f5f5f5f5f5f545f425f945094509450945094509091929394565b5f5ffd5b5f819050919050565b6100b18161009f565b81146100bb575f5ffd5b50565b5f813590506100cc816100a8565b92915050565b5f602082840312156100e7576100e661009b565b5b5f6100f4848285016100be565b91505092915050565b5f69ffffffffffffffffffff82169050919050565b61011b816100fd565b82525050565b61012a8161009f565b82525050565b5f819050919050565b61014281610130565b82525050565b5f60a08201905061015b5f830188610112565b6101686020830187610121565b6101756040830186610139565b6101826060830185610139565b61018f6080830184610112565b969550505050505056fea26469706673582212201260358c6fa83d61b74d0b9dfc76abd380bebe286919e7087fa0c8ab4a20e6d564736f6c63430008210033","linkReferences":{}},"methodIdentifiers":{"latestRoundData()":"feaf968c","updatePrice(int256)":"d4c19bda"},"id":59}